:100000000C947B000C94A3000C94A3000C94A3000C
:100010000C94A3000C94A3000C94A3000C94A300D4
:100020000C94A3000C94A3000C94A3000C94A300C4
:100030000C94A3000C94A3000C94A3000C94A300B4
:100040000C945B110C94A3000C9488040C9462042F
:100050000C94A3000C94A3000C94A3000C94A30094
:100060000C94A3000C94A300A514B614B614B614F3
:10007000B614B614B6148E14B614B614B614B61458
:10008000B61477147A147D1480148314861489149A
:100090007061747465726E206973206E6F77203A98
:1000A0002000701919008B000000701919008000E1
:1000B00000008B000000CD000000578B2E008080D8
:1000C0000000A09E5F00FF0000008B8B0000ED95FC
:1000D0006400D4FF7F00578B2E00FFFF0000FACE94
:1000E00087007061747465726E206973206E6F771B
:1000F000203A2000041311241FBECFEFD8E0DEBF4A
:10010000CDBF11E0A0E0B1E0E8E3FCE202C0059061
:100110000D92AC37B107D9F726E0ACE7B1E001C0EA
:100120001D92A23FB207E1F710E0CBE7D0E004C098
:100130002197FE010E940816CA37D107C9F70E940D
:1001400095130C941A160C9400000F931F93CF93E1
:10015000DF93EC018B01E881F9810480F581E02DCA
:100160000995B801660F771F060F171F01581E4F1C
:100170001B830A8386E990E09E878D87E881F98159
:100180000284F385E02DCE010995009729F19C01A9
:1001900040E050E060E472E48FE090E00E946D1572
:1001A000722F632F009181061091820620918306A1
:1001B00030918406872F962FDA0180179107A207C6
:1001C000B30710F4D901C801809381069093820689
:1001D000A0938306B0938406CE01DF91CF911F9147
:1001E0000F910895CF92DF92EF92FF920F931F939A
:1001F000CF93DF936C017A018B01C0E0D0E0CE1584
:10020000DF0589F0D8016D918D01D601ED91FC914A
:100210000190F081E02DC6010995892B11F47E0132
:1002200002C02196ECCFC701DF91CF911F910F91B2
:10023000FF90EF90DF90CF90089585E095E00E94C9
:10024000881021E0892B09F420E0822F08953F9245
:100250004F925F926F927F928F929F92AF92BF92D6
:10026000CF92DF92EF92FF920F931F93CF93DF9382
:1002700000D01F92CDB7DEB7F82E80918106909105
:100280008206A0918306B0918406892B8A2B8B2B42
:10029000E9F00E942A1100917A0610917B062091C4
:1002A0007C0630917D06DC01CB01801B910BA20BFB
:1002B000B30B009181061091820620918306309144
:1002C000840680179107A207B307B8F20E942A118B
:1002D00060937A0670937B0680937C0690937D06EC
:1002E000E0918906F0918A06309759F04091850691
:1002F0005091860660918706709188068F2D09952A
:10030000F82E00910305109104054F2C512C612CFF
:10031000712C0115110509F461C0D8011C96EC90EF
:100320001C9780917F06909180068436910510F489
:100330001C961C92D801ED91FC91A280B380198289
:100340001A821B82F11014C0F8014585568562811E
:1003500073819E012F5F3F4FC801F5010995D801B8
:100360001C96EC921C9714960D911C911597D1CF69
:10037000F8013996CE0101966C0148019CE0890E86
:10038000911CDF0113973C902191332001F122232E
:10039000F1F0822F90E0A0E0B0E09C01AD012F5F72
:1003A0003F4F4F4F5F4FC301B2010E94D0159B01D9
:1003B000AC01832D90E0A0E0B0E0BC01CD016F5F07
:1003C0007F4F8F4F9F4F0E94D015D6018C93BFEF68
:1003D000CB1ADB0AE815F905A1F6B6CF80917806AD
:1003E000909179068C010F5F1F4F1093790600934F
:1003F000780649979CF10E944F114B015C0188EEF1
:1004000093E0089FB001099F700D189F700D112493
:10041000072E000C880B990BC0907406D0907506BF
:10042000E0907606F0907706A50194012C193D091D
:100430004E095F090E949F153093800620937F0626
:1004400010927906109278060E944F1160937406FC
:100450007093750680937606909377060F900F90B1
:100460000F90DF91CF911F910F91FF90EF90DF9050
:10047000CF90BF90AF909F908F907F906F905F9044
:100480004F903F9008958F929F92AF92BF920F939B
:100490001F93CF93DF93CDB7DEB7A1970FB6F89434
:1004A000DEBF0FBECDBF19A2423008F44AE08E0174
:1004B0000F5D1F4F842E912CA12CB12CA50194010E
:1004C0000E949F15E62FB901CA0101501109EA30B7
:1004D00014F4E05D01C0E95CD801EC93232B242BDC
:1004E000252B61F70115110571F0F801019000202D
:1004F000E9F73197AF01401B510BB80185E095E05A
:100500000E94F20002C080E090E0A1960FB6F8943D
:10051000DEBF0FBECDBFDF91CF911F910F91BF9076
:10052000AF909F908F9008950F931F93CF93DF9379
:10053000EC01062F142F8F3F910509F010F4DC2FEA
:10054000CC270E944F119B01AC01A8E1B1E00E94B1
:100550008C159B01AC01DE010E948C15892F0E9435
:10056000C50B101B282F219F020E20E0211D1124F6
:10057000822F800FDF91CF911F910F910895CF931C
:10058000DF93AFE7B1E0E1E8F1E040E050E0481789
:100590005907C9F02C91269F020E20E0211D2C93B3
:1005A000EF012A91269F020E20E0211D2883208141
:1005B000269F020E20E0211D208311244F5F5F4FF4
:1005C00013963396E4CFDF91CF91089520E330E086
:1005D00042ED55E0FC01DA0120FF05C002C00190A8
:1005E0000D9201900D922250D0F73040C0F7CA0111
:1005F0000895CF92DF92EF92FF92CF93DF936C0139
:10060000990FEE08FF08F7FE1AC0E0910505F0917A
:1006100006050190F081E02D6DE285E095E00995F9
:10062000EC0166277727CB016C197D098E099F099C
:100630004AE00E9443027C01EC0EFD1E06C04AE027
:10064000C701B6010E9443027C0142E050E068E726
:1006500071E085E095E00E94F2008E0D9F1DDF9114
:10066000CF91FF90EF90DF90CF9008950F931F935D
:10067000CF93DF938C01C0E0D0E0F801EC0FFD1FB9
:100680006491662371F0E0910505F09106050190F3
:10069000F081E02D85E095E00995892B11F02196F8
:1006A000ECCFCE01DF91CF911F910F910895A2ED74
:1006B000B5E0E2E0F6E080E040E34E0F90812D915E
:1006C000921799F0921718F49F5F90838F5F908133
:1006D000291748F43FEF390F8F5F231710F030834D
:1006E00002C092509083883118F431964E13E6CFB1
:1006F00008952F923F924F925F926F927F928F92C6
:100700009F92AF92BF92CF92DF92EF92FF920F93A0
:100710001F93CF93DF93CDB7DEB729970FB6F89429
:10072000DEBF0FBECDBF5C017B01DA014901F801DC
:1007300026173707C0F42081918182813C91308354
:1007400011963C911197318312963C911297328306
:100750002C9311969C93119712968C9312978F2D30
:100760007401862E982E0281002319F08181811157
:1007700002C08C91808312969C911297808199235C
:1007800029F011962C911197211101C08C9311968B
:100790006C901197712CC180D12CC618D708D694B3
:1007A000DC2CCC24D794C794E92FF0E010E00E1B8A
:1007B0001F0B1695102F0027179507955C9085192C
:1007C00087FF62C0819520E8829FC0011124919526
:1007D0008195910994012E193F0919F0422E432F5A
:1007E00003C04424439440E0642D742F0E94F41508
:1007F0009B01C601642D742F0E94F4156B01C80182
:10080000642D742F0E94F415C901880F991F9D83D0
:100810008C83A601440F551F9B01220F331F052D0A
:1008200010E0102F0027762C6624DE2ECC24170132
:10083000220C331C2E0C3F1C412C512C8E149F0477
:1008400040F119837A82DB82B201620D731D6A0D59
:100850007B1DCE010196288739874E835F830E94D6
:10086000A5118C819D81080F191F4E815F81640E37
:10087000751E28853985C20ED31E9FEFE91AF90A25
:1008800083E0480E511CDACF20E8829FC00111247A
:10089000A1CF29960FB6F894DEBF0FBECDBFDF9172
:1008A000CF911F910F91FF90EF90DF90CF90BF906D
:1008B000AF909F908F907F906F905F904F903F9000
:1008C0002F9008951F920F920FB60F9211242F931D
:1008D0003F934F935F936F937F938F939F93AF93C8
:1008E000BF93EF93FF9385E095E00E94A010FF91E6
:1008F000EF91BF91AF919F918F917F916F915F9198
:100900004F913F912F910F900FBE0F901F90189510
:100910001F920F920FB60F9211242F938F939F93D4
:10092000EF93FF93E0911505F09116058081E0911A
:100930001B05F0911C0582FD12C0908180911E055F
:100940008F5F8F7320911F05821751F0E0911E0574
:10095000F0E0EB5FFA4F958F80931E0501C0808118
:10096000FF91EF919F918F912F910F900FBE0F905C
:100970001F90189580E991E00895399A08954F9253
:100980005F926F927F928F92AF92BF92CF92EF92CF
:10099000FF920F931F93CF93DF933C01EB010E94D3
:1009A0002A11F30127853089621B730B6A307105A8
:1009B000B0F3F894E881F98158B1526088B18D7F25
:1009C00088B96A859F81262F291B922F2F83BF8488
:1009D0004A805B807D85FC84EE847F5FF394E394A2
:1009E0003E814885A984CB841181D20120E0C32FA8
:1009F000022F322F3181112788943111390F08F4D9
:100A00003FEF9195889470FD130F1795889471FDB1
:100A1000130F1795889472FD130F1795889473FD23
:100A2000130F1795889474FD130F1795889475FD0F
:100A3000130F1795889476FD130F1795889477FDFB
:100A4000130F17958894232F7111212F960F122FB2
:100A5000002C58B900C017FF88B93081222788942C
:100A600000C000C0002C88B931113C0F00C0002C20
:100A700058B900C016FF88B908F43FEFC1958894B3
:100A800000C000C0002C88B9F0FC230F00C0002C6F
:100A900058B900C015FF88B927958894F1FC230F39
:100AA00000C000C0002C88B92795889400C0002C95
:100AB00058B900C014FF88B9F2FC230F2795889419
:100AC00000C000C0002C88B9F3FC230F00C0002C2C
:100AD00058B900C013FF88B927958894F4FC230FF8
:100AE00000C000C0002C88B92795889400C0002C55
:100AF00058B900C012FF88B9F5FC230F27958894D8
:100B000000C000C0002C88B9F6FC230F00C0002CE8
:100B100058B900C011FF88B927958894F7FC230FB6
:100B200000C000C0002C88B92795889400C0002C14
:100B300058B900C010FF88B9132FF110122FCA0D39
:100B400000C000C0002C88B900C000C0002C58B9FB
:100B500000C017FF88B932812227889400C000C0E6
:100B6000002C88B93111340F00C0002C58B900C0D6
:100B700016FF88B908F43FEFEB0DF11D00C000C06F
:100B8000002C88B9E0FC230F00C0002C58B900C02D
:100B900015FF88B927958894E1FC230F00C000C099
:100BA000002C88B92795889400C0002C58B900C043
:100BB00014FF88B9E2FC230F2795889400C000C079
:100BC000002C88B9E3FC230F00C0002C58B900C0EA
:100BD00013FF88B927958894E4FC230F00C000C058
:100BE000002C88B92795889400C0002C58B900C003
:100BF00012FF88B9E5FC230F2795889400C000C038
:100C0000002C88B9E6FC230F00C0002C58B900C0A6
:100C100011FF88B927958894E7FC230F00C000C016
:100C2000002C88B92795889400C0002C58B900C0C2
:100C300010FF88B9132FE110122F419500C000C09A
:100C4000002C88B94C0D00C000C058B900C017FF77
:100C500088B931812227889400C000C0002C88B94F
:100C60003111390F00C0002C58B900C016FF88B9E7
:100C700008F43FEF9195889400C000C0002C88B91B
:100C800070FD230F00C0002C58B900C015FF88B9B3
:100C90002795889471FD230F00C000C0002C88B9EF
:100CA0002795889400C0002C58B900C014FF88B95B
:100CB00072FD230F2795889400C000C0002C88B9CE
:100CC00073FD230F00C0002C58B900C013FF88B972
:100CD0002795889474FD230F00C000C0002C88B9AC
:100CE0002795889400C0002C58B900C012FF88B91D
:100CF00075FD230F2795889400C000C0002C88B98B
:100D000076FD230F00C0002C58B900C011FF88B930
:100D10002795889477FD230F00C000C0002C88B968
:100D20002795889400C0002C58B900C010FF88B9DE
:100D3000132F7111122F960F00C000C0002C88B91C
:100D4000119709F086CE20EE31E0D2010E940E16F6
:100D5000DC01CB01F4E0B695A79597958795FA95B8
:100D6000D1F720E030E0A9016AE9469E040C411D5C
:100D7000569E400D511D1124450D511D840F951F88
:100D8000A11DB11D893E43E09407A105B10508F4FA
:100D900034C0885E9340A109B10942E0B695A79599
:100DA000979587954A95D1F747E0849F080E211DB6
:100DB000949F200D311D1124290F311D6091E706EC
:100DC00070E0860F971F820F931F4091E8065091A5
:100DD000E9066091EA067091EB06292F3327420F4E
:100DE000531F611D711D4093E8065093E9066093FF
:100DF000EA067093EB068093E70678940E942A1126
:100E0000F301708B6787DF91CF911F910F91FF9056
:100E1000EF90CF90BF90AF908F907F906F905F904A
:100E20004F9008950F931F93CF93DF93CDB7DEB705
:100E300062970FB6F894DEBF0FBECDBF8C01F901EB
:100E4000DC011C968C917A8369835C834B835E837F
:100E50004D8390819D8791819E8792819F8781306C
:100E600029F4CE0101960E94B71206C01C861B868B
:100E70001A86198618861F82188A1A8A198AD80132
:100E8000ED91FC910484F585E02DBE016F5F7F4FED
:100E9000C801099562960FB6F894DEBF0FBECDBFAC
:100EA000DF91CF911F910F9108950F931F93CF93CF
:100EB000DF93CDB7DEB762970FB6F894DEBF0FBEF3
:100EC000CDBF8C01F901DC011C968C917A8369837A
:100ED0005C834B835E834D8390819D8791819E8748
:100EE00092819F87813029F4CE0101960E94B7122A
:100EF00006C01C861B861A86198618861F8283E008
:100F0000888B1A8A198AD801ED91FC910484F585A1
:100F1000E02DBE016F5F7F4FC801099562960FB645
:100F2000F894DEBF0FBECDBFDF91CF911F910F911F
:100F30000895FC0182E591E09183808313821282FF
:100F40008FEF86838783808781878287838781E08D
:100F500084871686158615821482809103059091E8
:100F60000405892B21F4F0930405E0930305A09177
:100F70008B06B0918C06109721F01596FC93EE939A
:100F80001497F0938C06E0938B0682E691E09183B0
:100F90008083089580E090E00895FC018585968522
:100FA0000895CF93DF9300D000D000D0CDB7DEB747
:100FB000AB011C821D821E82DC01ED91FC9101902F
:100FC000F081E02D19821A821B829E012F5F3F4F14
:100FD000BE016C5F7F4F099526960FB6F894DEBF71
:100FE0000FBECDBFDF91CF910895FC01DB013C9195
:100FF0002081230F08F42FEF208311963C91119745
:101000002181230F08F42FEF218312963C91228136
:10101000230F08F42FEF228308954091020150918D
:10102000030125E038E0429FC001439F900D529F8D
:10103000900D1124875E994C9093030180930201D7
:10104000890F0895CF93C82F0E940D088C9FC0016F
:101050001124892FCF910895CF92DF92EF92FF92C2
:101060001F93CF93DF93EC010E944F1128EEC22E05
:1010700023E0D22EE12CF12CA70196010E949F15AE
:1010800088819981B901681B790B11E02A813B8124
:101090006217730710F410E008C00E944F11A701F7
:1010A00096010E949F1539832883812FDF91CF916C
:1010B0001F91FF90EF90DF90CF9008958F929F92B5
:1010C000AF92BF92CF92DF92EF92FF920F931F9356
:1010D000CF93DF9300D01F92CDB7DEB767EF8CE2DE
:1010E00091E00E94BF020E940D088A3F08F041C0B3
:1010F000A12CB12C85E0882E88E0982E8AE00E94F1
:10110000220890E0A816B906A4F5809102019091FA
:101110000301889D9001899D300D989D300D11240B
:10112000275E394C3093030120930201ACE2B1E019
:101130000E94C1156C01EE24FF240E940D0801E0FD
:1011400010E02FEF482F62EA75E0CE0101960E9471
:101150004B12C601880F991F8C0D9D1DBE016F5F3C
:101160007F4F81589E4F0E94F5078FEFA81AB80A4B
:10117000C5CF0F900F900F90DF91CF911F910F91DE
:10118000FF90EF90DF90CF90BF90AF909F908F90A7
:101190000895EF92FF920F931F93CF93DF9300D0A8
:1011A00000D000D0CDB7DEB765EF8CE291E00E94B1
:1011B000BF020E940D088F37D8F5209102013091AF
:1011C000030185E098E0289F8001299F100D389F3A
:1011D000100D1124075E194C1093030100930201B6
:1011E00084E60E942208E82EF0907C0180E40E94B0
:1011F00022088F0D8983EA828FEF8B83BE016C5F9B
:101200007F4FCE0101960E94A5119801ACE2B1E09A
:101210000E94C115AA27BB279C01220F331F820FF2
:10122000931FBE016C5F7F4F81589E4F0E94F50750
:1012300026960FB6F894DEBF0FBECDBFDF91CF91DB
:101240001F910F91FF90EF9008950F931F93CF93ED
:10125000DF9300D000D000D0CDB7DEB780917C0105
:1012600089838FEF8A838B83BE016C5F7F4FCE01B2
:1012700001960E94A5114C813D812E8180E090E075
:10128000FC01E158FE4F408331832283039684386A
:1012900053E09507A9F70E940D088431B0F520911D
:1012A00002013091030185E098E0289F8001299F89
:1012B000100D389F100D1124075E194C1093030177
:1012C0000093020188EC0E94220890917C0199838E
:1012D0008A838FEF8B83BE016C5F7F4FCE010196B7
:1012E0000E94A5119801ACE2B1E00E94C115AA27A5
:1012F000BB279C01220F331F820F931FBE016C5F1F
:101300007F4F81589E4F0E94F50726960FB6F8949E
:10131000DEBF0FBECDBFDF91CF911F910F9108951A
:1013200067E070E00E94E01590937E0180937D015C
:1013300082EE90E00E94360380917D0190917E01C3
:101340000C94F902DB01029620E030E0FD01E20F8F
:10135000F31F4591559165917491FC01329760831B
:1013600031965083FC0140832C5F3F4F039620341D
:10137000310561F70895CF92DF92EF92FF921F93AC
:10138000CF93DF93EC010E944F11C880D980EA808F
:10139000FB80DC01CB018C199D09AE09BF0911E06E
:1013A000CC80DD80EE80FF808C159D05AE05BF05ED
:1013B00010F410E006C00E944F11688379838A837D
:1013C0009B83812FDF91CF911F91FF90EF90DF9052
:1013D000CF9008954F925F926F927F928F929F92DB
:1013E000AF92BF92CF92DF92EF92FF920F931F9333
:1013F000CF93DF93CDB7DEB7E6970FB6F894DEBF95
:101400000FBECDBF8091B306811119C00E944F114C
:101410006093AB067093AC068093AD069093AE06D6
:1014200084E690E0A0E0B0E08093AF069093B00631
:10143000A093B106B093B20681E08093B3068BEA25
:1014400096E00E94BB0981110E9457038091A30678
:10145000811115C00E944F1128EE33E040E050E0AA
:101460000E949F153093A00620939F068CE390E086
:101470009093A2068093A10681E08093A3068FE952
:1014800096E00E942C08882309F47AC08FE70E9416
:101490002208882E80917C01BCE06B2E680E8FE7BD
:1014A0000E94220810E8512E580E80917C0108E01D
:1014B000B02EB80E8FE70E94220890E8492E480E01
:1014C00080917C0120E1A22EA80E8FE70E942208C5
:1014D00090917C019A5FACAA77247A947DAA4EAA57
:1014E00099AB30EC932E9AAA80588BAB6E0181E3B6
:1014F000C80ED11C8E010C5C1F4F25E030E0A60108
:1015000060E070E0CE0101967C010E947903BCAAE4
:101510009DAA5EAAA9AA7AAA4BAA2AE030E0A6014F
:1015200065E070E0C7010E9479036CAA7DAA90E88B
:10153000980D9EABB9AA9AAA5BAA2FE030E0A6014B
:101540006AE070E0C7010E94790392EDE91695E028
:10155000F90629F020F0C7010E94E60211C080E3DD
:1015600090E022E036E0F601D90180FF05C002C01C
:1015700002900E9202900E928250D0F79040C0F7E7
:1015800080919706811119C00E944F1160938F06B8
:1015900070939006809391069093920682E390E078
:1015A000A0E0B0E08093930690939406A0939506F4
:1015B000B093960681E0809397068FE896E00E94AC
:1015C000BB09882309F4CAC067EE8CE291E00E944F
:1015D000BF02E0900001F0900101E114F104C9F0B4
:1015E00080E1E816F104A1F19FEFE916F906B9F5DB
:1015F0000E945F152CE231E040E050E00E946D1542
:1016000070938E0660938D06109201011092000176
:1016100078C001E010E02FEF40917C0162E076E0BD
:10162000CE0101960E944B12E0918D06F0918E063C
:10163000CF01880F991FE80FF91FE158FE4F8981EC
:1016400080838A8181838B81828381E090E002C0E4
:101650008FEF9FEF909301018093000152C08FEFB5
:1016600090E0B7010E94F415962E990C01E010E06D
:10167000292D40917C0162E076E0CE0101960E9426
:101680004B12C0908D06D0908E06C6018E0D9F1D08
:10169000845D9E4F5CE2A52EBB24B394B5010E94ED
:1016A000F4159C01220F331F820F931FBE016F5F41
:1016B0007F4F81589E4F0E94F507292D40917C0154
:1016C00062E076E0CE0101960E944B12CE18DF0850
:1016D000C601845D9E4FB5010E94F4159C01220F46
:1016E000331F820F931FBE016F5F7F4F81589E4F44
:1016F0000E94F5078FEFE81AF80AF0920101E092D4
:1017000000010E940D08883748F58FEF89838A838E
:101710008B83409102015091030185E098E0489F3E
:101720009001499F300D589F300D1124275E394C90
:101730003093030120930201ACE2B1E00E94C11595
:10174000AA27BB279C01220F331F820F931FBE01C4
:101750006F5F7F4F81589E4F0E94F507E6960FB648
:10176000F894DEBF0FBECDBFDF91CF911F910F91D7
:10177000FF90EF90DF90CF90BF90AF909F908F90B1
:101780007F906F905F904F900895482F982F46FD5F
:101790009095E92FEF739F7046FD9F5FE695E69564
:1017A000E695E670F0E0E059FE4F2181299F802DFB
:1017B000212D112482958F702295207F822B3081DC
:1017C000982F930F892F47FD819580580895AF92E8
:1017D000BF92CF92DF92EF92FF920F931F93CF931E
:1017E000DF9300D01F92CDB7DEB78091DF06811165
:1017F00019C00E944F116093D7067093D80680934A
:10180000D9069093DA0684E690E0A0E0B0E08093F9
:10181000DB069093DC06A093DD06B093DE0681E044
:101820008093DF0687ED96E00E94BB0981111EC000
:101830008091CF06811188C00E944F116093C70626
:101840007093C8068093C9069093CA0686E990E013
:10185000A0E0B0E08093CB069093CC06A093CD0699
:10186000B093CE0681E08093CF066EC040E460EC7A
:1018700086E090E00E949402F82E40E460EC87E05D
:1018800090E00E94940290E4E92EE80EC12CD12C45
:101890003F2DF7FC3095330F232F239F020E20E0BE
:1018A000211D422F439F040E40E0411D83E0289FED
:1018B0009001112482E0489F20193109112430FD44
:1018C00002C0122F01C01FEF8E2D0E94C50B212FC9
:1018D00026958695A82EB12CA20EB11C40E660E09C
:1018E00087E090E00E94940290E08A159B0554F4F2
:1018F00040E660E087E090E00E9494029501281B9A
:10190000310902C020E030E001E010E04A2D62E041
:1019100076E0CE0101960E944B12F601E158FE4F8F
:10192000898180838A8181838B81828383E0C80E51
:10193000D11C8FE0E80E87E1F80E84E8C81683E03A
:10194000D80609F0A5CF74CF87EC96E00E94BB09BA
:1019500081110E9457038091BF06811115C00E941A
:101960004F1128EE33E040E050E00E949F15309385
:10197000BC062093BB068CE390E09093BE06809358
:10198000BD0681E08093BF068BEB96E00E942C0899
:101990000F900F900F90DF91CF911F910F91FF90BB
:1019A000EF90DF90CF90BF90AF9008958F929F926D
:1019B000AF92BF92EF92FF920F931F93CF93DF935B
:1019C00000D01F92CDB7DEB70E944F11DC01CB01D2
:1019D00026E0B695A795979587952A95D1F70E9409
:1019E000C50B082F0E944F11DC01CB0135E0B695E5
:1019F000A795979587953A95D1F70E94C50B86953F
:101A00000695182F100F4FE7E42E41E0F42E812C9D
:101A1000912C54018A940AEF20917C0130E0ACE3D0
:101A2000B0E00E94C115A50194010E946D15DA0174
:101A3000C90189579F4FAF4FBF4F89830A831B83CB
:101A4000B701CE0101960E94A51183E0E80EF11CBA
:101A500083E0E81685E0F806F9F60F900F900F90F6
:101A6000DF91CF911F910F91FF90EF90BF90AF90BA
:101A70009F908F9008955F926F927F928F929F9226
:101A8000AF92BF92CF92DF92EF92FF920F931F938C
:101A9000CF93DF930E944F11DC01CB01F5E0B695A7
:101AA000A79597958795FA95D1F70E94C50B782E43
:101AB00000E010E0C2EAD0E066246394680E509023
:101AC0007C0183E00E942208850D682F62956F706B
:101AD0008F70582E262F30E0F901EE0FFF1FEE0F0A
:101AE000FF1FEE55FF4FC590D590E590F49047014C
:101AF000AA24BB24782DBB27AF2D9E2D8D2D582FCA
:101B00004C2D552009F433C06F3009F06CC0FE0134
:101B10004591559165917491362F252F652D6295CC
:101B2000607FE62FE095582D7E2F579F050E50E0E1
:101B3000511D732F769F070E70E0711D750F382FA2
:101B40005E2F359F030E30E0311D522F569F050E3C
:101B500050E0511D530F2C2D3E2F239F020E20E0ED
:101B6000211D469F040E40E0411D420F11248FEFBE
:101B70007816E1F07720B9F0772329F0262D729FAF
:101B8000070E70E0711D552329F0362D539F050E69
:101B900050E0511D442329F0262D429F040E40E0C1
:101BA000411D112403C040E050E070E0F801E1580D
:101BB000FE4F7083518342830D5F1F4F043833E023
:101BC000130709F07CCFDF91CF911F910F91FF9008
:101BD000EF90DF90CF90BF90AF909F908F907F90CD
:101BE0006F905F900895F901EE0FFF1FEE0FFF1F3A
:101BF000EA55FF4F8DCF80E991E00895389A089516
:101C00004F925F926F927F928F92AF92BF92CF92DC
:101C1000EF92FF920F931F93CF93DF933C01EB0161
:101C20000E942A11F30127853089621B730B6A30E9
:101C30007105B0F3F894E881F98158B1516088B129
:101C40008E7F88B96A859F81262F291B922F2F832B
:101C5000BF844A805B807D85FC84EE847F5FF39443
:101C6000E3943E814885A984CB841181D20120E090
:101C7000C32F022F322F3181112788943111390F50
:101C800008F43FEF9195889470FD130F1795889491
:101C900071FD130F1795889472FD130F1795889493
:101CA00073FD130F1795889474FD130F179588947F
:101CB00075FD130F1795889476FD130F179588946B
:101CC00077FD130F17958894232F7111212F960FED
:101CD000122F002C58B900C017FF88B93081222775
:101CE000889400C000C0002C88B931113C0F00C09E
:101CF000002C58B900C016FF88B908F43FEFC19511
:101D0000889400C000C0002C88B9F0FC230F00C0EC
:101D1000002C58B900C015FF88B927958894F1FCAC
:101D2000230F00C000C0002C88B92795889400C0FC
:101D3000002C58B900C014FF88B9F2FC230F279576
:101D4000889400C000C0002C88B9F3FC230F00C0A9
:101D5000002C58B900C013FF88B927958894F4FC6B
:101D6000230F00C000C0002C88B92795889400C0BC
:101D7000002C58B900C012FF88B9F5FC230F279535
:101D8000889400C000C0002C88B9F6FC230F00C066
:101D9000002C58B900C011FF88B927958894F7FC2A
:101DA000230F00C000C0002C88B92795889400C07C
:101DB000002C58B900C010FF88B9132FF110122F52
:101DC000CA0D00C000C0002C88B900C000C0002CA3
:101DD00058B900C017FF88B932812227889400C003
:101DE00000C0002C88B93111340F00C0002C58B944
:101DF00000C016FF88B908F43FEFEB0DF11D00C0DD
:101E000000C0002C88B9E0FC230F00C0002C58B99A
:101E100000C015FF88B927958894E1FC230F00C006
:101E200000C0002C88B92795889400C0002C58B9B0
:101E300000C014FF88B9E2FC230F2795889400C0E6
:101E400000C0002C88B9E3FC230F00C0002C58B957
:101E500000C013FF88B927958894E4FC230F00C0C5
:101E600000C0002C88B92795889400C0002C58B970
:101E700000C012FF88B9E5FC230F2795889400C0A5
:101E800000C0002C88B9E6FC230F00C0002C58B914
:101E900000C011FF88B927958894E7FC230F00C084
:101EA00000C0002C88B92795889400C0002C58B930
:101EB00000C010FF88B9132FE110122F419500C008
:101EC00000C0002C88B94C0D00C000C058B900C03B
:101ED00017FF88B931812227889400C000C0002CE8
:101EE00088B93111390F00C0002C58B900C016FF55
:101EF00088B908F43FEF9195889400C000C0002C89
:101F000088B970FD230F00C0002C58B900C015FF20
:101F100088B92795889471FD230F00C000C0002C5C
:101F200088B92795889400C0002C58B900C014FFC8
:101F300088B972FD230F2795889400C000C0002C3B
:101F400088B973FD230F00C0002C58B900C013FFDF
:101F500088B92795889474FD230F00C000C0002C19
:101F600088B92795889400C0002C58B900C012FF8A
:101F700088B975FD230F2795889400C000C0002CF8
:101F800088B976FD230F00C0002C58B900C011FF9E
:101F900088B92795889477FD230F00C000C0002CD6
:101FA00088B92795889400C0002C58B900C010FF4C
:101FB00088B9132F7111122F960F00C000C0002C8A
:101FC00088B9119709F086CE20EE31E0D2010E9447
:101FD0000E16DC01CB01F4E0B695A7959795879591
:101FE000FA95D1F720E030E0A9016AE9469E040C99
:101FF000411D569E400D511D1124450D511D840F4C
:10200000951FA11DB11D893E43E09407A105B105AF
:1020100008F434C0885E9340A109B10942E0B69546
:10202000A795979587954A95D1F747E0849F080E25
:10203000211D949F200D311D1124290F311D609108
:10204000E70670E0860F971F820F931F4091E80606
:102050005091E9066091EA067091EB06292F33272B
:10206000420F531F611D711D4093E8065093E9060E
:102070006093EA067093EB068093E70678940E94DB
:102080002A11F301708B6787DF91CF911F910F9118
:10209000FF90EF90CF90BF90AF908F907F906F9018
:1020A0005F904F900895089580E090E00895FC01BE
:1020B000538D448D252F30E0842F90E0821B930BAD
:1020C000541710F0CF96089501970895FC01918D53
:1020D000828D981761F0828DDF01A80FB11D5D968A
:1020E0008C91928D9F5F9F73928F90E008958FEFF8
:1020F0009FEF0895FC01918D828D981731F0828DAC
:10210000E80FF11D858D90E008958FEF9FEF089502
:10211000FC01918D228D892F90E0805C9F4F821B66
:1021200091098F739927089580E090E0892B29F019
:102130000E941D0181110C94000008950E94151643
:10214000FC01848DDF01A80FB11DA35ABF4F2C9154
:10215000848D90E001968F739927848FA689B78923
:102160002C93A089B1898C9180648C93938D848DFC
:10217000981306C00288F389E02D80818F7D8083CB
:102180000895EF92FF920F931F93CF93DF93EC018B
:1021900081E0888F9B8D8C8D981305C0E889F98923
:1021A000808185FD24C0F62E0B8D10E00F5F1F4F40
:1021B0000F731127E02E8C8DE8120CC00FB607FCB0
:1021C000FACFE889F989808185FFF5CFCE010E9499
:1021D000A010F1CF8B8DFE01E80FF11DE35AFF4FE8
:1021E000F0820B8FEA89FB898081806207C0EE89CB
:1021F000FF896083E889F98980818064808381E038
:1022000090E0DF91CF911F910F91FF90EF90089593
:10221000CF93DF93EC01888D8823C9F0EA89FB898D
:10222000808185FD05C0A889B9898C9186FD0FC084
:102230000FB607FCF5CF808185FFF2CFA889B98959
:102240008C9185FFEDCFCE010E94A010E7CFDF91EA
:10225000CF9108953FB7F8948091EE069091EF06E4
:10226000A091F006B091F10626B5A89B05C02F3FBE
:1022700019F00196A11DB11D3FBFBA2FA92F982FAC
:102280008827820F911DA11DB11DBC01CD0142E027
:10229000660F771F881F991F4A95D1F708952FB7AA
:1022A000F8946091E8067091E9068091EA069091B1
:1022B000EB062FBF08951F920F920FB60F921124B5
:1022C0002F933F938F939F93AF93BF938091E80693
:1022D0009091E906A091EA06B091EB063091ED06E7
:1022E00023E0230F2D3720F40196A11DB11D05C059
:1022F00026E8230F0296A11DB11D2093ED068093C1
:10230000E8069093E906A093EA06B093EB06809165
:10231000EE069091EF06A091F006B091F1060196BD
:10232000A11DB11D8093EE069093EF06A093F006D9
:10233000B093F106BF91AF919F918F913F912F91F3
:102340000F900FBE0F901F901895DC01FB014C9170
:1023500011965C91119712967C91342F3F71330F37
:10236000330F832F880F35E5282F239F020E20E09F
:10237000211D1124642F6074942F907247FD21C099
:1023800061110BC0911104C0822F8095422F11C0A2
:1023900045E5420F30E02BEA33C091110DC0382FD4
:1023A0004AEA349F030E30E0311D11248BEA831B6F
:1023B000420F282F30E024C080E0422F4095322F7A
:1023C0000EC0611111C091110CC0382F2AEA329F42
:1023D000030E30E0311D11244BEA431B3B5A20E031
:1023E0000FC0322F30950BC0911104C085E5820FCC
:1023F0003BEA03C08AEA820F90E0321B282F40E0BC
:102400005F3F11F15523E9F0222321F0259F020EB1
:1024100020E0211D442321F0459F040E40E0411D92
:10242000332321F0359F030E30E0311D11245095E8
:10243000559F050E50E0511D1124250F450F350FF6
:1024400003C03FEF4FEF2FEF7F3F09F420C050E074
:10245000772321F0779F512D09F05F5F5523A1F07D
:10246000222321F0259F020E20E0211D442321F08C
:10247000459F040E40E0411D332321F0359F030E9C
:1024800030E0311D112403C030E040E020E0208323
:102490004183328308950F931F93CF93DF93E80115
:1024A000142F12951F704F70FB01312F330F310F16
:1024B000DB01A30FB11D442319F071E0CD2B09F40A
:1024C00070E06C9111965C91119712963C91129765
:1024D000772309F427C01F3011F0FD013396429590
:1024E000407F142F10957081619F060E60E0611D82
:1024F000749F070E70E0711D670F7181519F050E6B
:1025000050E0511D749F070E70E0711D570F7281CE
:10251000319F030E30E0311D749F070E70E0711D76
:10252000370F11242F3FD1F02223A9F02F5F66230C
:1025300021F0629F060E60E0611D552321F0529F3D
:10254000050E50E0511D332321F0329F030E30E081
:10255000311D112403C030E050E060E0FC016083D5
:1025600051833283DF91CF911F910F910895EF92A4
:10257000FF920F931F93CF93DF93EC019091EC06A2
:102580009F5F292F27702093EC0690FF02C090E8F0
:1025900001C090E021FD9064247009F0906220E178
:1025A000290FFE013C967E018FE0E80EF11C00E051
:1025B00011E06191662331F070E0C8010E94F415CA
:1025C0006F5F01C060E0DF0114976C93322F369F7C
:1025D000030E30E0311D1124CF010797311103C0E4
:1025E000EC01188203C03150EC013883662311F0EE
:1025F00061506C93EE15FF05E1F6DF91CF911F91CD
:102600000F91FF90EF900895CF93E5E0F5E01382EE
:10261000128288EE93E0A0E0B0E084839583A683E5
:10262000B78380E491E09183808385EC90E0958787
:10263000848784EC90E09787868780EC90E0918B8C
:10264000808B81EC90E0938B828B82EC90E0958B79
:10265000848B86EC90E0978B868B118E128E138E76
:10266000148EEEE7F6E0CFEFC0831282118214865B
:1026700013868FEF9FEFDC0187839087A187B28756
:1026800062EA70E082E096E00E94A20962EA70E0ED
:1026900082ED95E00E94A209E2EAF5E01082118243
:1026A000128280E88383148285838AE886838BE2A2
:1026B000878382EE80878BE8818712868387848771
:1026C0001586868798E497879DE3908B818B9BE4A2
:1026D000928B138A92E8948B158A9FEB968BC78B0B
:1026E00029E9208F26E6218F2CEC228F2FE5238FDE
:1026F0002EE9248F20EA258FC68F178EC0A311A242
:1027000092A3C3A314A285A386A38FE787A3C0A720
:1027100084ED81A78DEA82A788ED83A786EE84A742
:1027200015A696A7C7A7CF910895789484B582601F
:1027300084BD84B5816084BD85B5826085BD85B565
:10274000816085BD80916E00816080936E001092E3
:10275000810080918100826080938100809181005E
:1027600081608093810080918000816080938000EF
:102770008091B10084608093B1008091B00081604D
:102780008093B00080917A00846080937A00809179
:102790007A00826080937A0080917A0081608093D1
:1027A0007A0080917A00806880937A001092C1004C
:1027B00080914306811111C082E396E00E9499073F
:1027C00010924206109241068CE091E090933306FD
:1027D0008093320681E08093430660E070E082E3FC
:1027E00096E00E94A500FC018FEF868380EB878333
:1027F00080EF808780915C06811111C08BE496E0A8
:102800000E94990710925B0610925A068EE191E0A1
:1028100090934C0680934B0681E080935C0666E9BA
:1028200070E08BE496E00E94A500FC018FEF8683A8
:1028300090EB978390EF908780937E06E09115054B
:10284000F091160582E08083E0911105F091120568
:102850001082E0911305F091140580E180831092BD
:102860001D05E0911905F0911A0586E08083E0913D
:102870001705F0911805808180618083E09117052C
:10288000F0911805808188608083E0911705F091B0
:102890001805808180688083E0911705F091180504
:1028A00080818F7D80831FEFC7E0D0E092E3C92E47
:1028B000D12CE12CF12C01E085E095E00E948810FC
:1028C000181619060CF052C085E095E00E946610BB
:1028D000082E000C990BAA0BBB0BFC01B397E4313B
:1028E000F10508F043C0EC5CFF4F0C94081680E043
:1028F00090E011C081E090E00EC082E090E00BC05B
:1029000083E090E008C084E090E005C085E090E0BE
:1029100002C086E090E00E94900928C080917D016D
:1029200090917E010196BE010E94E01590937E0178
:1029300080937D0180E990E00E94360380917D01C3
:1029400090917E010E94F90211C080E090E0FC01AC
:10295000E158FE4F1083118312830396843823E0DD
:102960009207A9F780917E060E942701E0917D01E0
:10297000F0917E01EE0FFF1FE25DFE4F0190F081AE
:10298000E02D099580917E060E9427010E944F113B
:102990004B015C010E942A112B013C010E942A116B
:1029A000DC01CB0184199509A609B709883E93403B
:1029B000A105B10598F380917E060E9427010E942F
:1029C0004F11DC01CB0188199909AA09BB090A97A3
:1029D000A105B105F8F280916C06811114C00E9426
:1029E0004F1160936406709365068093660690931A
:1029F0006706C0926806D0926906E0926A06F09275
:102A00006B0600936C0684E696E00E94BB0988235F
:102A100029F080917C018F5F80937C010E9494104B
:102A20004BCF8F929F92AF92BF92CF92DF92EF9255
:102A3000FF92CF93DF93EC01688179818A819B813A
:102A4000611571058105910521F464E279ED8BE54D
:102A500097E02DE133EF41E050E00E946D15490110
:102A60005A019B01AC01A7EAB1E40E948C156B01ED
:102A70007C01ACEEB4EFA50194010E949A15DC0133
:102A8000CB018C0D9D1DAE1DBF1DB7FF03C001976F
:102A9000A109B04888839983AA83BB83BC01CD0177
:102AA0009F77DF91CF91FF90EF90DF90CF90BF9015
:102AB000AF909F908F9008950E941115089584E023
:102AC00091E00E941115089560930401709305012F
:102AD00080930601909307010895052E97FB1EF43D
:102AE00000940E94841557FD07D00E949F1507FC93
:102AF00003D04EF40C948415509540953095219553
:102B00003F4F4F4F5F4F0895909580957095619519
:102B10007F4F8F4F9F4F08950E94C115A59F900D25
:102B2000B49F900DA49F800D911D11240895B7FFAF
:102B30000C948C150E948C15821B930B0895A1E2B6
:102B40001A2EAA1BBB1BFD010DC0AA1FBB1FEE1F27
:102B5000FF1FA217B307E407F50720F0A21BB30B72
:102B6000E40BF50B661F771F881F991F1A9469F7EE
:102B700060957095809590959B01AC01BD01CF014A
:102B80000895A29FB001B39FC001A39F700D811D46
:102B90001124911DB29F700D811D1124911D089566
:102BA000DB018F939F930E948C15BF91AF91A29FE1
:102BB000800D911DA39F900DB29F900D112408953B
:102BC000AA1BBB1B51E107C0AA1FBB1FA617B70753
:102BD00010F0A61BB70B881F991F5A95A9F780956F
:102BE0009095BC01CD01089597FB072E16F4009433
:102BF00007D077FD09D00E94E01507FC05D03EF410
:102C0000909581959F4F0895709561957F4F089598
:102C1000EE0FFF1F0590F491E02D09940E94C1155D
:102C2000B7FF0895821B930B089581E090E0F8941C
:082C30000C941A16F894FFCF72
:102C3800FFFF3905010000000000000012075507DA
:102C4800FE0DD107CD07FB0D000E00000000120796
:102C58005507BD04D107CD07BA04BF042C015E088F
:102C6800EA09E70B3B0DD60CC9082509000000004E
:102C7800C110F20057100811881066107A10000071
:102C880000009E109E109E10D107CD07CA070000B5
:102C98000000120755079E10D107CD07CA079E10DE
:0C2CA800003131295A1B750A0D0A00008A
:00000001FF
